{
  "_format": "hh3-artifact-1",
  "contractName": "SplitterFactory",
  "sourceName": "contracts/SplitterFactory.sol",
  "abi": [
    {
      "inputs": [
        {
          "internalType": "address",
          "name": "_platform",
          "type": "address"
        },
        {
          "internalType": "address",
          "name": "_usdc",
          "type": "address"
        }
      ],
      "stateMutability": "nonpayable",
      "type": "constructor"
    },
    {
      "inputs": [
        {
          "internalType": "address",
          "name": "owner",
          "type": "address"
        }
      ],
      "name": "OwnableInvalidOwner",
      "type": "error"
    },
    {
      "inputs": [
        {
          "internalType": "address",
          "name": "account",
          "type": "address"
        }
      ],
      "name": "OwnableUnauthorizedAccount",
      "type": "error"
    },
    {
      "anonymous": false,
      "inputs": [
        {
          "indexed": false,
          "internalType": "uint256",
          "name": "minAmount",
          "type": "uint256"
        },
        {
          "indexed": false,
          "internalType": "uint256",
          "name": "flatFee",
          "type": "uint256"
        },
        {
          "indexed": false,
          "internalType": "uint256",
          "name": "threshold",
          "type": "uint256"
        },
        {
          "indexed": false,
          "internalType": "uint256",
          "name": "feeBps",
          "type": "uint256"
        }
      ],
      "name": "FeeParamsUpdated",
      "type": "event"
    },
    {
      "anonymous": false,
      "inputs": [
        {
          "indexed": true,
          "internalType": "address",
          "name": "previousOwner",
          "type": "address"
        },
        {
          "indexed": true,
          "internalType": "address",
          "name": "newOwner",
          "type": "address"
        }
      ],
      "name": "OwnershipTransferred",
      "type": "event"
    },
    {
      "anonymous": false,
      "inputs": [
        {
          "indexed": true,
          "internalType": "address",
          "name": "publisher",
          "type": "address"
        },
        {
          "indexed": false,
          "internalType": "address",
          "name": "splitter",
          "type": "address"
        }
      ],
      "name": "SplitterCreated",
      "type": "event"
    },
    {
      "inputs": [],
      "name": "BPS",
      "outputs": [
        {
          "internalType": "uint256",
          "name": "",
          "type": "uint256"
        }
      ],
      "stateMutability": "view",
      "type": "function"
    },
    {
      "inputs": [
        {
          "internalType": "uint256",
          "name": "amount",
          "type": "uint256"
        }
      ],
      "name": "calculateFee",
      "outputs": [
        {
          "internalType": "uint256",
          "name": "",
          "type": "uint256"
        }
      ],
      "stateMutability": "view",
      "type": "function"
    },
    {
      "inputs": [
        {
          "internalType": "address",
          "name": "publisher",
          "type": "address"
        }
      ],
      "name": "deploy",
      "outputs": [
        {
          "internalType": "address",
          "name": "",
          "type": "address"
        }
      ],
      "stateMutability": "nonpayable",
      "type": "function"
    },
    {
      "inputs": [],
      "name": "feeBps",
      "outputs": [
        {
          "internalType": "uint256",
          "name": "",
          "type": "uint256"
        }
      ],
      "stateMutability": "view",
      "type": "function"
    },
    {
      "inputs": [],
      "name": "flatFee",
      "outputs": [
        {
          "internalType": "uint256",
          "name": "",
          "type": "uint256"
        }
      ],
      "stateMutability": "view",
      "type": "function"
    },
    {
      "inputs": [],
      "name": "minAmount",
      "outputs": [
        {
          "internalType": "uint256",
          "name": "",
          "type": "uint256"
        }
      ],
      "stateMutability": "view",
      "type": "function"
    },
    {
      "inputs": [],
      "name": "owner",
      "outputs": [
        {
          "internalType": "address",
          "name": "",
          "type": "address"
        }
      ],
      "stateMutability": "view",
      "type": "function"
    },
    {
      "inputs": [],
      "name": "platform",
      "outputs": [
        {
          "internalType": "address",
          "name": "",
          "type": "address"
        }
      ],
      "stateMutability": "view",
      "type": "function"
    },
    {
      "inputs": [],
      "name": "renounceOwnership",
      "outputs": [],
      "stateMutability": "nonpayable",
      "type": "function"
    },
    {
      "inputs": [
        {
          "internalType": "uint256",
          "name": "_minAmount",
          "type": "uint256"
        },
        {
          "internalType": "uint256",
          "name": "_flatFee",
          "type": "uint256"
        },
        {
          "internalType": "uint256",
          "name": "_threshold",
          "type": "uint256"
        },
        {
          "internalType": "uint256",
          "name": "_feeBps",
          "type": "uint256"
        }
      ],
      "name": "setFeeParams",
      "outputs": [],
      "stateMutability": "nonpayable",
      "type": "function"
    },
    {
      "inputs": [
        {
          "internalType": "address[]",
          "name": "splitterAddresses",
          "type": "address[]"
        }
      ],
      "name": "splitMany",
      "outputs": [],
      "stateMutability": "nonpayable",
      "type": "function"
    },
    {
      "inputs": [
        {
          "internalType": "address",
          "name": "",
          "type": "address"
        }
      ],
      "name": "splitters",
      "outputs": [
        {
          "internalType": "address",
          "name": "",
          "type": "address"
        }
      ],
      "stateMutability": "view",
      "type": "function"
    },
    {
      "inputs": [],
      "name": "threshold",
      "outputs": [
        {
          "internalType": "uint256",
          "name": "",
          "type": "uint256"
        }
      ],
      "stateMutability": "view",
      "type": "function"
    },
    {
      "inputs": [
        {
          "internalType": "address",
          "name": "newOwner",
          "type": "address"
        }
      ],
      "name": "transferOwnership",
      "outputs": [],
      "stateMutability": "nonpayable",
      "type": "function"
    },
    {
      "inputs": [],
      "name": "usdc",
      "outputs": [
        {
          "internalType": "address",
          "name": "",
          "type": "address"
        }
      ],
      "stateMutability": "view",
      "type": "function"
    }
  ],
  "bytecode": "0x60c0604052614e20600155612710600255620186a06003556103e8600455348015610028575f80fd5b50604051610edc380380610edc833981016040819052610047916100f7565b338061006c57604051631e4fbdf760e01b81525f600482015260240160405180910390fd5b6100758161008d565b506001600160a01b039182166080521660a052610128565b5f80546001600160a01b038381166001600160a01b0319831681178455604051919092169283917f8be0079c531659141344cd1fd0a4f28419497f9722a3daafe3b4186f6b6457e09190a35050565b80516001600160a01b03811681146100f2575f80fd5b919050565b5f8060408385031215610108575f80fd5b610111836100dc565b915061011f602084016100dc565b90509250929050565b60805160a051610d856101575f395f818161011e015261029f01525f8181610166015261027e0152610d855ff3fe608060405234801561000f575f80fd5b50600436106100f0575f3560e01c8063715018a611610093578063c41e1d1911610063578063c41e1d19146101e4578063d9eb5947146101f7578063e65cb24414610200578063f2fde38b14610228575f80fd5b8063715018a6146101b05780638da5cb5b146101b857806399a5d747146101c85780639b2cb5d8146101db575f80fd5b806342cde4e8116100ce57806342cde4e8146101585780634bde38c8146101615780634c96a389146101885780636d5fb64a1461019b575f80fd5b8063249d39e9146100f457806324a9d853146101105780633e413bee14610119575b5f80fd5b6100fd61271081565b6040519081526020015b60405180910390f35b6100fd60045481565b6101407f000000000000000000000000000000000000000000000000000000000000000081565b6040516001600160a01b039091168152602001610107565b6100fd60035481565b6101407f000000000000000000000000000000000000000000000000000000000000000081565b6101406101963660046105c9565b61023b565b6101ae6101a93660046105f6565b610377565b005b6101ae610425565b5f546001600160a01b0316610140565b6100fd6101d6366004610625565b610438565b6100fd60015481565b6101ae6101f236600461063c565b61047d565b6100fd60025481565b61014061020e3660046105c9565b60056020525f90815260409020546001600160a01b031681565b6101ae6102363660046105c9565b610504565b6001600160a01b038181165f908152600560205260408120549091161561027a57506001600160a01b039081165f908152600560205260409020541690565b5f827f00000000000000000000000000000000000000000000000000000000000000007f0000000000000000000000000000000000000000000000000000000000000000306040516102cb906105bc565b6001600160a01b039485168152928416602084015290831660408301529091166060820152608001604051809103905ff08015801561030c573d5f803e3d5ffd5b506001600160a01b038481165f8181526005602090815260409182902080546001600160a01b03191694861694851790559051928352929350917f22142b283581f0b2a487f7a23e0422d292eb5783629173717aa106744ad70d60910160405180910390a292915050565b61037f610541565b6127108111156103c35760405162461bcd60e51b815260206004820152600a602482015269666565203e203130302560b01b60448201526064015b60405180910390fd5b60018490556002839055600382905560048190556040805185815260208101859052908101839052606081018290527fbcc7b2dd84f54286b7f9e2368de1229ff1d53b35e2786e20d1b884e95feee4559060800160405180910390a150505050565b61042d610541565b6104365f61056d565b565b5f60015482101561044a57505f919050565b60035482101561045c57505060025490565b6127106004548361046d91906106ab565b61047791906106ce565b92915050565b5f5b818110156104ff57828282818110610499576104996106ed565b90506020020160208101906104ae91906105c9565b6001600160a01b031663f76541766040518163ffffffff1660e01b81526004015f604051808303815f87803b1580156104e5575f80fd5b505af19250505080156104f6575060015b5060010161047f565b505050565b61050c610541565b6001600160a01b03811661053557604051631e4fbdf760e01b81525f60048201526024016103ba565b61053e8161056d565b50565b5f546001600160a01b031633146104365760405163118cdaa760e01b81523360048201526024016103ba565b5f80546001600160a01b038381166001600160a01b0319831681178455604051919092169283917f8be0079c531659141344cd1fd0a4f28419497f9722a3daafe3b4186f6b6457e09190a35050565b61064e8061070283390190565b5f602082840312156105d9575f80fd5b81356001600160a01b03811681146105ef575f80fd5b9392505050565b5f805f8060808587031215610609575f80fd5b5050823594602084013594506040840135936060013592509050565b5f60208284031215610635575f80fd5b5035919050565b5f806020838503121561064d575f80fd5b823567ffffffffffffffff80821115610664575f80fd5b818501915085601f830112610677575f80fd5b813581811115610685575f80fd5b8660208260051b8501011115610699575f80fd5b60209290920196919550909350505050565b808202811582820484141761047757634e487b7160e01b5f52601160045260245ffd5b5f826106e857634e487b7160e01b5f52601260045260245ffd5b500490565b634e487b7160e01b5f52603260045260245ffdfe60e060405234801561000f575f80fd5b5060405161064e38038061064e83398101604081905261002e916100b6565b6001600160a01b03841661007c5760405162461bcd60e51b815260206004820152601160248201527034b73b30b634b210383ab13634b9b432b960791b604482015260640160405180910390fd5b6001600160a01b03938416608052831660a05290911660c05250610107565b80516001600160a01b03811681146100b1575f80fd5b919050565b5f805f80608085870312156100c9575f80fd5b6100d28561009b565b93506100e06020860161009b565b92506100ee6040860161009b565b91506100fc6060860161009b565b905092959194509250565b60805160a05160c0516104f66101585f395f8181605301528181610100015281816102a9015261036101525f818160bd015261018001525f818160960152818161033201526103e501526104f65ff3fe608060405234801561000f575f80fd5b506004361061004a575f3560e01c80633e413bee1461004e5780638c72c54e14610091578063c45a0155146100b8578063f7654176146100df575b5f80fd5b6100757f000000000000000000000000000000000000000000000000000000000000000081565b6040516001600160a01b03909116815260200160405180910390f35b6100757f000000000000000000000000000000000000000000000000000000000000000081565b6100757f000000000000000000000000000000000000000000000000000000000000000081565b6100e76100e9565b005b6040516370a0823160e01b81523060048201525f907f00000000000000000000000000000000000000000000000000000000000000006001600160a01b0316906370a0823190602401602060405180830381865afa15801561014d573d5f803e3d5ffd5b505050506040513d601f19601f820116820180604052508101906101719190610438565b9050805f0361017d5750565b5f7f000000000000000000000000000000000000000000000000000000000000000090505f816001600160a01b0316634bde38c86040518163ffffffff1660e01b8152600401602060405180830381865afa1580156101de573d5f803e3d5ffd5b505050506040513d601f19601f82011682018060405250810190610202919061044f565b6040516399a5d74760e01b8152600481018590529091505f906001600160a01b038416906399a5d74790602401602060405180830381865afa15801561024a573d5f803e3d5ffd5b505050506040513d601f19601f8201168201806040525081019061026e9190610438565b90505f61027b828661047c565b905081156103155760405163a9059cbb60e01b81526001600160a01b038481166004830152602482018490527f0000000000000000000000000000000000000000000000000000000000000000169063a9059cbb906044016020604051808303815f875af11580156102ef573d5f803e3d5ffd5b505050506040513d601f19601f8201168201806040525081019061031391906104a1565b505b80156103cd5760405163a9059cbb60e01b81526001600160a01b037f000000000000000000000000000000000000000000000000000000000000000081166004830152602482018390527f0000000000000000000000000000000000000000000000000000000000000000169063a9059cbb906044016020604051808303815f875af11580156103a7573d5f803e3d5ffd5b505050506040513d601f19601f820116820180604052508101906103cb91906104a1565b505b60408051828152602081018490526001600160a01b037f000000000000000000000000000000000000000000000000000000000000000016917f5d95162205dc900555172b9649799b0334d5c456a8c9d875524229cd73416d4b910160405180910390a25050505050565b5f60208284031215610448575f80fd5b5051919050565b5f6020828403121561045f575f80fd5b81516001600160a01b0381168114610475575f80fd5b9392505050565b8181038181111561049b57634e487b7160e01b5f52601160045260245ffd5b92915050565b5f602082840312156104b1575f80fd5b81518015158114610475575f80fdfea2646970667358221220d3c87a669f609b5c582fe16da0073098bb4ee70bf17437ed8e17d38866d88b0b64736f6c63430008180033a26469706673582212205ce976c2070a193cdc40bba5b8c1cf3cfc4922a1825a0264365ac0acde6a724a64736f6c63430008180033",
  "linkReferences": {},
  "deployedLinkReferences": {},
  "immutableReferences": {
    "360": [
      {
        "length": 32,
        "start": 358
      },
      {
        "length": 32,
        "start": 638
      }
    ],
    "362": [
      {
        "length": 32,
        "start": 286
      },
      {
        "length": 32,
        "start": 671
      }
    ]
  },
  "inputSourceName": "project/contracts/SplitterFactory.sol",
  "buildInfoId": "solc-0_8_24-d4f330f44342d50d0c7194b23dcaa1b7668b0d75"
}