{
  "_format": "hh3-artifact-1",
  "contractName": "Splitter",
  "sourceName": "contracts/Splitter.sol",
  "abi": [
    {
      "inputs": [
        {
          "internalType": "address",
          "name": "_publisher",
          "type": "address"
        },
        {
          "internalType": "address",
          "name": "_platform",
          "type": "address"
        },
        {
          "internalType": "address",
          "name": "_usdc",
          "type": "address"
        },
        {
          "internalType": "address",
          "name": "_factory",
          "type": "address"
        }
      ],
      "stateMutability": "nonpayable",
      "type": "constructor"
    },
    {
      "anonymous": false,
      "inputs": [
        {
          "indexed": true,
          "internalType": "address",
          "name": "publisher",
          "type": "address"
        },
        {
          "indexed": false,
          "internalType": "uint256",
          "name": "publisherAmount",
          "type": "uint256"
        },
        {
          "indexed": false,
          "internalType": "uint256",
          "name": "platformAmount",
          "type": "uint256"
        }
      ],
      "name": "Split",
      "type": "event"
    },
    {
      "inputs": [],
      "name": "factory",
      "outputs": [
        {
          "internalType": "address",
          "name": "",
          "type": "address"
        }
      ],
      "stateMutability": "view",
      "type": "function"
    },
    {
      "inputs": [],
      "name": "publisher",
      "outputs": [
        {
          "internalType": "address",
          "name": "",
          "type": "address"
        }
      ],
      "stateMutability": "view",
      "type": "function"
    },
    {
      "inputs": [],
      "name": "split",
      "outputs": [],
      "stateMutability": "nonpayable",
      "type": "function"
    },
    {
      "inputs": [],
      "name": "usdc",
      "outputs": [
        {
          "internalType": "contract IERC20",
          "name": "",
          "type": "address"
        }
      ],
      "stateMutability": "view",
      "type": "function"
    }
  ],
  "bytecode": "0x60e060405234801561000f575f80fd5b5060405161064e38038061064e83398101604081905261002e916100b6565b6001600160a01b03841661007c5760405162461bcd60e51b815260206004820152601160248201527034b73b30b634b210383ab13634b9b432b960791b604482015260640160405180910390fd5b6001600160a01b03938416608052831660a05290911660c05250610107565b80516001600160a01b03811681146100b1575f80fd5b919050565b5f805f80608085870312156100c9575f80fd5b6100d28561009b565b93506100e06020860161009b565b92506100ee6040860161009b565b91506100fc6060860161009b565b905092959194509250565b60805160a05160c0516104f66101585f395f8181605301528181610100015281816102a9015261036101525f818160bd015261018001525f818160960152818161033201526103e501526104f65ff3fe608060405234801561000f575f80fd5b506004361061004a575f3560e01c80633e413bee1461004e5780638c72c54e14610091578063c45a0155146100b8578063f7654176146100df575b5f80fd5b6100757f000000000000000000000000000000000000000000000000000000000000000081565b6040516001600160a01b03909116815260200160405180910390f35b6100757f000000000000000000000000000000000000000000000000000000000000000081565b6100757f000000000000000000000000000000000000000000000000000000000000000081565b6100e76100e9565b005b6040516370a0823160e01b81523060048201525f907f00000000000000000000000000000000000000000000000000000000000000006001600160a01b0316906370a0823190602401602060405180830381865afa15801561014d573d5f803e3d5ffd5b505050506040513d601f19601f820116820180604052508101906101719190610438565b9050805f0361017d5750565b5f7f000000000000000000000000000000000000000000000000000000000000000090505f816001600160a01b0316634bde38c86040518163ffffffff1660e01b8152600401602060405180830381865afa1580156101de573d5f803e3d5ffd5b505050506040513d601f19601f82011682018060405250810190610202919061044f565b6040516399a5d74760e01b8152600481018590529091505f906001600160a01b038416906399a5d74790602401602060405180830381865afa15801561024a573d5f803e3d5ffd5b505050506040513d601f19601f8201168201806040525081019061026e9190610438565b90505f61027b828661047c565b905081156103155760405163a9059cbb60e01b81526001600160a01b038481166004830152602482018490527f0000000000000000000000000000000000000000000000000000000000000000169063a9059cbb906044016020604051808303815f875af11580156102ef573d5f803e3d5ffd5b505050506040513d601f19601f8201168201806040525081019061031391906104a1565b505b80156103cd5760405163a9059cbb60e01b81526001600160a01b037f000000000000000000000000000000000000000000000000000000000000000081166004830152602482018390527f0000000000000000000000000000000000000000000000000000000000000000169063a9059cbb906044016020604051808303815f875af11580156103a7573d5f803e3d5ffd5b505050506040513d601f19601f820116820180604052508101906103cb91906104a1565b505b60408051828152602081018490526001600160a01b037f000000000000000000000000000000000000000000000000000000000000000016917f5d95162205dc900555172b9649799b0334d5c456a8c9d875524229cd73416d4b910160405180910390a25050505050565b5f60208284031215610448575f80fd5b5051919050565b5f6020828403121561045f575f80fd5b81516001600160a01b0381168114610475575f80fd5b9392505050565b8181038181111561049b57634e487b7160e01b5f52601160045260245ffd5b92915050565b5f602082840312156104b1575f80fd5b81518015158114610475575f80fdfea2646970667358221220d3c87a669f609b5c582fe16da0073098bb4ee70bf17437ed8e17d38866d88b0b64736f6c63430008180033",
  "linkReferences": {},
  "deployedLinkReferences": {},
  "immutableReferences": {
    "212": [
      {
        "length": 32,
        "start": 150
      },
      {
        "length": 32,
        "start": 818
      },
      {
        "length": 32,
        "start": 997
      }
    ],
    "214": [
      {
        "length": 32,
        "start": 189
      },
      {
        "length": 32,
        "start": 384
      }
    ],
    "217": [
      {
        "length": 32,
        "start": 83
      },
      {
        "length": 32,
        "start": 256
      },
      {
        "length": 32,
        "start": 681
      },
      {
        "length": 32,
        "start": 865
      }
    ]
  },
  "inputSourceName": "project/contracts/Splitter.sol",
  "buildInfoId": "solc-0_8_24-d4f330f44342d50d0c7194b23dcaa1b7668b0d75"
}