{
  "_format": "hh3-artifact-1",
  "contractName": "Splitter",
  "sourceName": "contracts/Splitter.sol",
  "abi": [
    {
      "inputs": [
        {
          "internalType": "address",
          "name": "_publisher",
          "type": "address"
        },
        {
          "internalType": "address",
          "name": "_platform",
          "type": "address"
        },
        {
          "internalType": "address",
          "name": "_usdc",
          "type": "address"
        }
      ],
      "stateMutability": "nonpayable",
      "type": "constructor"
    },
    {
      "anonymous": false,
      "inputs": [
        {
          "indexed": true,
          "internalType": "address",
          "name": "publisher",
          "type": "address"
        },
        {
          "indexed": false,
          "internalType": "uint256",
          "name": "publisherAmount",
          "type": "uint256"
        },
        {
          "indexed": false,
          "internalType": "uint256",
          "name": "platformAmount",
          "type": "uint256"
        }
      ],
      "name": "Split",
      "type": "event"
    },
    {
      "inputs": [],
      "name": "BPS_DENOMINATOR",
      "outputs": [
        {
          "internalType": "uint256",
          "name": "",
          "type": "uint256"
        }
      ],
      "stateMutability": "view",
      "type": "function"
    },
    {
      "inputs": [],
      "name": "PLATFORM_BPS",
      "outputs": [
        {
          "internalType": "uint256",
          "name": "",
          "type": "uint256"
        }
      ],
      "stateMutability": "view",
      "type": "function"
    },
    {
      "inputs": [],
      "name": "platform",
      "outputs": [
        {
          "internalType": "address",
          "name": "",
          "type": "address"
        }
      ],
      "stateMutability": "view",
      "type": "function"
    },
    {
      "inputs": [],
      "name": "publisher",
      "outputs": [
        {
          "internalType": "address",
          "name": "",
          "type": "address"
        }
      ],
      "stateMutability": "view",
      "type": "function"
    },
    {
      "inputs": [],
      "name": "split",
      "outputs": [],
      "stateMutability": "nonpayable",
      "type": "function"
    },
    {
      "inputs": [],
      "name": "usdc",
      "outputs": [
        {
          "internalType": "contract IERC20",
          "name": "",
          "type": "address"
        }
      ],
      "stateMutability": "view",
      "type": "function"
    }
  ],
  "bytecode": "0x60e060405234801561000f575f80fd5b5060405161061b38038061061b83398101604081905261002e916100fe565b6001600160a01b03831661007d5760405162461bcd60e51b815260206004820152601160248201527034b73b30b634b210383ab13634b9b432b960791b60448201526064015b60405180910390fd5b6001600160a01b0382166100c65760405162461bcd60e51b815260206004820152601060248201526f696e76616c696420706c6174666f726d60801b6044820152606401610074565b6001600160a01b0392831660805290821660a0521660c05261013e565b80516001600160a01b03811681146100f9575f80fd5b919050565b5f805f60608486031215610110575f80fd5b610119846100e3565b9250610127602085016100e3565b9150610135604085016100e3565b90509250925092565b60805160a05160c05161048c61018f5f395f81816069015281816101370152818161022901526102e101525f818160ad01526101fa01525f818160d4015281816102b20152610365015261048c5ff3fe608060405234801561000f575f80fd5b5060043610610060575f3560e01c80633e413bee146100645780634bde38c8146100a85780638c72c54e146100cf578063ce91e164146100f6578063e1a452181461010d578063f765417614610116575b5f80fd5b61008b7f000000000000000000000000000000000000000000000000000000000000000081565b6040516001600160a01b0390911681526020015b60405180910390f35b61008b7f000000000000000000000000000000000000000000000000000000000000000081565b61008b7f000000000000000000000000000000000000000000000000000000000000000081565b6100ff6105dc81565b60405190815260200161009f565b6100ff61271081565b61011e610120565b005b6040516370a0823160e01b81523060048201525f907f00000000000000000000000000000000000000000000000000000000000000006001600160a01b0316906370a0823190602401602060405180830381865afa158015610184573d5f803e3d5ffd5b505050506040513d601f19601f820116820180604052508101906101a891906103b6565b9050805f036101b45750565b5f6127106101c46105dc846103e1565b6101ce91906103fe565b90505f6101db828461041d565b905081156102955760405163a9059cbb60e01b81526001600160a01b037f000000000000000000000000000000000000000000000000000000000000000081166004830152602482018490527f0000000000000000000000000000000000000000000000000000000000000000169063a9059cbb906044016020604051808303815f875af115801561026f573d5f803e3d5ffd5b505050506040513d601f19601f820116820180604052508101906102939190610430565b505b801561034d5760405163a9059cbb60e01b81526001600160a01b037f000000000000000000000000000000000000000000000000000000000000000081166004830152602482018390527f0000000000000000000000000000000000000000000000000000000000000000169063a9059cbb906044016020604051808303815f875af1158015610327573d5f803e3d5ffd5b505050506040513d601f19601f8201168201806040525081019061034b9190610430565b505b60408051828152602081018490526001600160a01b037f000000000000000000000000000000000000000000000000000000000000000016917f5d95162205dc900555172b9649799b0334d5c456a8c9d875524229cd73416d4b910160405180910390a2505050565b5f602082840312156103c6575f80fd5b5051919050565b634e487b7160e01b5f52601160045260245ffd5b80820281158282048414176103f8576103f86103cd565b92915050565b5f8261041857634e487b7160e01b5f52601260045260245ffd5b500490565b818103818111156103f8576103f86103cd565b5f60208284031215610440575f80fd5b8151801515811461044f575f80fd5b939250505056fea26469706673582212200c76984cdda8cb3551b97a0c5fcea4a846f4704cd70bca022d28c2a9bae919c264736f6c63430008180033",
  "linkReferences": {},
  "deployedLinkReferences": {},
  "immutableReferences": {
    "21": [
      {
        "length": 32,
        "start": 212
      },
      {
        "length": 32,
        "start": 690
      },
      {
        "length": 32,
        "start": 869
      }
    ],
    "23": [
      {
        "length": 32,
        "start": 173
      },
      {
        "length": 32,
        "start": 506
      }
    ],
    "26": [
      {
        "length": 32,
        "start": 105
      },
      {
        "length": 32,
        "start": 311
      },
      {
        "length": 32,
        "start": 553
      },
      {
        "length": 32,
        "start": 737
      }
    ]
  },
  "inputSourceName": "project/contracts/Splitter.sol",
  "buildInfoId": "solc-0_8_24-8c8a0d3aca4f85e10de8d01f1349ec117e2e20e3"
}