{"project/contracts/Splitter.sol":{"Splitter":{"abi":[{"inputs":[{"internalType":"address","name":"_publisher","type":"address"},{"internalType":"address","name":"_platform","type":"address"},{"internalType":"address","name":"_usdc","type":"address"}],"stateMutability":"nonpayable","type":"constructor"},{"anonymous":false,"inputs":[{"indexed":true,"internalType":"address","name":"publisher","type":"address"},{"indexed":false,"internalType":"uint256","name":"publisherAmount","type":"uint256"},{"indexed":false,"internalType":"uint256","name":"platformAmount","type":"uint256"}],"name":"Split","type":"event"},{"inputs":[],"name":"BPS_DENOMINATOR","outputs":[{"internalType":"uint256","name":"","type":"uint256"}],"stateMutability":"view","type":"function"},{"inputs":[],"name":"PLATFORM_BPS","outputs":[{"internalType":"uint256","name":"","type":"uint256"}],"stateMutability":"view","type":"function"},{"inputs":[],"name":"platform","outputs":[{"internalType":"address","name":"","type":"address"}],"stateMutability":"view","type":"function"},{"inputs":[],"name":"publisher","outputs":[{"internalType":"address","name":"","type":"address"}],"stateMutability":"view","type":"function"},{"inputs":[],"name":"split","outputs":[],"stateMutability":"nonpayable","type":"function"},{"inputs":[],"name":"usdc","outputs":[{"internalType":"contract IERC20","name":"","type":"address"}],"stateMutability":"view","type":"function"}],"evm":{"bytecode":{"linkReferences":{},"object":"60e060405234801561000f575f80fd5b5060405161061b38038061061b83398101604081905261002e916100fe565b6001600160a01b03831661007d5760405162461bcd60e51b815260206004820152601160248201527034b73b30b634b210383ab13634b9b432b960791b60448201526064015b60405180910390fd5b6001600160a01b0382166100c65760405162461bcd60e51b815260206004820152601060248201526f696e76616c696420706c6174666f726d60801b6044820152606401610074565b6001600160a01b0392831660805290821660a0521660c05261013e565b80516001600160a01b03811681146100f9575f80fd5b919050565b5f805f60608486031215610110575f80fd5b610119846100e3565b9250610127602085016100e3565b9150610135604085016100e3565b90509250925092565b60805160a05160c05161048c61018f5f395f81816069015281816101370152818161022901526102e101525f818160ad01526101fa01525f818160d4015281816102b20152610365015261048c5ff3fe608060405234801561000f575f80fd5b5060043610610060575f3560e01c80633e413bee146100645780634bde38c8146100a85780638c72c54e146100cf578063ce91e164146100f6578063e1a452181461010d578063f765417614610116575b5f80fd5b61008b7f000000000000000000000000000000000000000000000000000000000000000081565b6040516001600160a01b0390911681526020015b60405180910390f35b61008b7f000000000000000000000000000000000000000000000000000000000000000081565b61008b7f000000000000000000000000000000000000000000000000000000000000000081565b6100ff6105dc81565b60405190815260200161009f565b6100ff61271081565b61011e610120565b005b6040516370a0823160e01b81523060048201525f907f00000000000000000000000000000000000000000000000000000000000000006001600160a01b0316906370a0823190602401602060405180830381865afa158015610184573d5f803e3d5ffd5b505050506040513d601f19601f820116820180604052508101906101a891906103b6565b9050805f036101b45750565b5f6127106101c46105dc846103e1565b6101ce91906103fe565b90505f6101db828461041d565b905081156102955760405163a9059cbb60e01b81526001600160a01b037f000000000000000000000000000000000000000000000000000000000000000081166004830152602482018490527f0000000000000000000000000000000000000000000000000000000000000000169063a9059cbb906044016020604051808303815f875af115801561026f573d5f803e3d5ffd5b505050506040513d601f19601f820116820180604052508101906102939190610430565b505b801561034d5760405163a9059cbb60e01b81526001600160a01b037f000000000000000000000000000000000000000000000000000000000000000081166004830152602482018390527f0000000000000000000000000000000000000000000000000000000000000000169063a9059cbb906044016020604051808303815f875af1158015610327573d5f803e3d5ffd5b505050506040513d601f19601f8201168201806040525081019061034b9190610430565b505b60408051828152602081018490526001600160a01b037f000000000000000000000000000000000000000000000000000000000000000016917f5d95162205dc900555172b9649799b0334d5c456a8c9d875524229cd73416d4b910160405180910390a2505050565b5f602082840312156103c6575f80fd5b5051919050565b634e487b7160e01b5f52601160045260245ffd5b80820281158282048414176103f8576103f86103cd565b92915050565b5f8261041857634e487b7160e01b5f52601260045260245ffd5b500490565b818103818111156103f8576103f86103cd565b5f60208284031215610440575f80fd5b8151801515811461044f575f80fd5b939250505056fea26469706673582212200c76984cdda8cb3551b97a0c5fcea4a846f4704cd70bca022d28c2a9bae919c264736f6c63430008180033","opcodes":"PUSH1 0xE0 PUSH1 0x40 MSTORE CALLVALUE DUP1 ISZERO PUSH2 0xF JUMPI PUSH0 DUP1 REVERT JUMPDEST POP PUSH1 0x40 MLOAD PUSH2 0x61B CODESIZE SUB DUP1 PUSH2 0x61B DUP4 CODECOPY DUP2 ADD PUSH1 0x40 DUP2 SWAP1 MSTORE PUSH2 0x2E SWAP2 PUSH2 0xFE JUMP JUMPDEST PUSH1 0x1 PUSH1 0x1 PUSH1 0xA0 SHL SUB DUP4 AND PUSH2 0x7D JUMPI PUSH1 0x40 MLOAD PUSH3 0x461BCD PUSH1 0xE5 SHL DUP2 MSTORE PUSH1 0x20 PUSH1 0x4 DUP3 ADD MSTORE PUSH1 0x11 PUSH1 0x24 DUP3 ADD MSTORE PUSH17 0x34B73B30B634B210383AB13634B9B432B9 PUSH1 0x79 SHL PUSH1 0x44 DUP3 ADD MSTORE PUSH1 0x64 ADD JUMPDEST PUSH1 0x40 MLOAD DUP1 SWAP2 SUB SWAP1 REVERT JUMPDEST PUSH1 0x1 PUSH1 0x1 PUSH1 0xA0 SHL SUB DUP3 AND PUSH2 0xC6 JUMPI PUSH1 0x40 MLOAD PUSH3 0x461BCD PUSH1 0xE5 SHL DUP2 MSTORE PUSH1 0x20 PUSH1 0x4 DUP3 ADD MSTORE PUSH1 0x10 PUSH1 0x24 DUP3 ADD MSTORE PUSH16 0x696E76616C696420706C6174666F726D PUSH1 0x80 SHL PUSH1 0x44 DUP3 ADD MSTORE PUSH1 0x64 ADD PUSH2 0x74 JUMP JUMPDEST PUSH1 0x1 PUSH1 0x1 PUSH1 0xA0 SHL SUB SWAP3 DUP4 AND PUSH1 0x80 MSTORE SWAP1 DUP3 AND PUSH1 0xA0 MSTORE AND PUSH1 0xC0 MSTORE PUSH2 0x13E JUMP JUMPDEST DUP1 MLOAD PUSH1 0x1 PUSH1 0x1 PUSH1 0xA0 SHL SUB DUP2 AND DUP2 EQ PUSH2 0xF9 JUMPI PUSH0 DUP1 REVERT JUMPDEST SWAP2 SWAP1 POP JUMP JUMPDEST PUSH0 DUP1 PUSH0 PUSH1 0x60 DUP5 DUP7 SUB SLT ISZERO PUSH2 0x110 JUMPI PUSH0 DUP1 REVERT JUMPDEST PUSH2 0x119 DUP5 PUSH2 0xE3 JUMP JUMPDEST SWAP3 POP PUSH2 0x127 PUSH1 0x20 DUP6 ADD PUSH2 0xE3 JUMP JUMPDEST SWAP2 POP PUSH2 0x135 PUSH1 0x40 DUP6 ADD PUSH2 0xE3 JUMP JUMPDEST SWAP1 POP SWAP3 POP SWAP3 POP SWAP3 JUMP JUMPDEST PUSH1 0x80 MLOAD PUSH1 0xA0 MLOAD PUSH1 0xC0 MLOAD PUSH2 0x48C PUSH2 0x18F PUSH0 CODECOPY PUSH0 DUP2 DUP2 PUSH1 0x69 ADD MSTORE DUP2 DUP2 PUSH2 0x137 ADD MSTORE DUP2 DUP2 PUSH2 0x229 ADD MSTORE PUSH2 0x2E1 ADD MSTORE PUSH0 DUP2 DUP2 PUSH1 0xAD ADD MSTORE PUSH2 0x1FA ADD MSTORE PUSH0 DUP2 DUP2 PUSH1 0xD4 ADD MSTORE DUP2 DUP2 PUSH2 0x2B2 ADD MSTORE PUSH2 0x365 ADD MSTORE PUSH2 0x48C PUSH0 RETURN INVALID PUSH1 0x80 PUSH1 0x40 MSTORE CALLVALUE DUP1 ISZERO PUSH2 0xF JUMPI PUSH0 DUP1 REVERT JUMPDEST POP PUSH1 0x4 CALLDATASIZE LT PUSH2 0x60 JUMPI PUSH0 CALLDATALOAD PUSH1 0xE0 SHR DUP1 PUSH4 0x3E413BEE EQ PUSH2 0x64 JUMPI DUP1 PUSH4 0x4BDE38C8 EQ PUSH2 0xA8 JUMPI DUP1 PUSH4 0x8C72C54E EQ PUSH2 0xCF JUMPI DUP1 PUSH4 0xCE91E164 EQ PUSH2 0xF6 JUMPI DUP1 PUSH4 0xE1A45218 EQ PUSH2 0x10D JUMPI DUP1 PUSH4 0xF7654176 EQ PUSH2 0x116 JUMPI JUMPDEST PUSH0 DUP1 REVERT JUMPDEST PUSH2 0x8B PUSH32 0x0 DUP2 JUMP JUMPDEST PUSH1 0x40 MLOAD PUSH1 0x1 PUSH1 0x1 PUSH1 0xA0 SHL SUB SWAP1 SWAP2 AND DUP2 MSTORE PUSH1 0x20 ADD JUMPDEST PUSH1 0x40 MLOAD DUP1 SWAP2 SUB SWAP1 RETURN JUMPDEST PUSH2 0x8B PUSH32 0x0 DUP2 JUMP JUMPDEST PUSH2 0x8B PUSH32 0x0 DUP2 JUMP JUMPDEST PUSH2 0xFF PUSH2 0x5DC DUP2 JUMP JUMPDEST PUSH1 0x40 MLOAD SWAP1 DUP2 MSTORE PUSH1 0x20 ADD PUSH2 0x9F JUMP JUMPDEST PUSH2 0xFF PUSH2 0x2710 DUP2 JUMP JUMPDEST PUSH2 0x11E PUSH2 0x120 JUMP JUMPDEST STOP JUMPDEST PUSH1 0x40 MLOAD PUSH4 0x70A08231 PUSH1 0xE0 SHL DUP2 MSTORE ADDRESS PUSH1 0x4 DUP3 ADD MSTORE PUSH0 SWAP1 PUSH32 0x0 PUSH1 0x1 PUSH1 0x1 PUSH1 0xA0 SHL SUB AND SWAP1 PUSH4 0x70A08231 SWAP1 PUSH1 0x24 ADD PUSH1 0x20 PUSH1 0x40 MLOAD DUP1 DUP4 SUB DUP2 DUP7 GAS STATICCALL ISZERO DUP1 ISZERO PUSH2 0x184 JUMPI RETURNDATASIZE PUSH0 DUP1 RETURNDATACOPY RETURNDATASIZE PUSH0 REVERT JUMPDEST POP POP POP POP PUSH1 0x40 MLOAD RETURNDATASIZE PUSH1 0x1F NOT PUSH1 0x1F DUP3 ADD AND DUP3 ADD DUP1 PUSH1 0x40 MSTORE POP DUP2 ADD SWAP1 PUSH2 0x1A8 SWAP2 SWAP1 PUSH2 0x3B6 JUMP JUMPDEST SWAP1 POP DUP1 PUSH0 SUB PUSH2 0x1B4 JUMPI POP JUMP JUMPDEST PUSH0 PUSH2 0x2710 PUSH2 0x1C4 PUSH2 0x5DC DUP5 PUSH2 0x3E1 JUMP JUMPDEST PUSH2 0x1CE SWAP2 SWAP1 PUSH2 0x3FE JUMP JUMPDEST SWAP1 POP PUSH0 PUSH2 0x1DB DUP3 DUP5 PUSH2 0x41D JUMP JUMPDEST SWAP1 POP DUP2 ISZERO PUSH2 0x295 JUMPI PUSH1 0x40 MLOAD PUSH4 0xA9059CBB PUSH1 0xE0 SHL DUP2 MSTORE PUSH1 0x1 PUSH1 0x1 PUSH1 0xA0 SHL SUB PUSH32 0x0 DUP2 AND PUSH1 0x4 DUP4 ADD MSTORE PUSH1 0x24 DUP3 ADD DUP5 SWAP1 MSTORE PUSH32 0x0 AND SWAP1 PUSH4 0xA9059CBB SWAP1 PUSH1 0x44 ADD PUSH1 0x20 PUSH1 0x40 MLOAD DUP1 DUP4 SUB DUP2 PUSH0 DUP8 GAS CALL ISZERO DUP1 ISZERO PUSH2 0x26F JUMPI RETURNDATASIZE PUSH0 DUP1 RETURNDATACOPY RETURNDATASIZE PUSH0 REVERT JUMPDEST POP POP POP POP PUSH1 0x40 MLOAD RETURNDATASIZE PUSH1 0x1F NOT PUSH1 0x1F DUP3 ADD AND DUP3 ADD DUP1 PUSH1 0x40 MSTORE POP DUP2 ADD SWAP1 PUSH2 0x293 SWAP2 SWAP1 PUSH2 0x430 JUMP JUMPDEST POP JUMPDEST DUP1 ISZERO PUSH2 0x34D JUMPI PUSH1 0x40 MLOAD PUSH4 0xA9059CBB PUSH1 0xE0 SHL DUP2 MSTORE PUSH1 0x1 PUSH1 0x1 PUSH1 0xA0 SHL SUB PUSH32 0x0 DUP2 AND PUSH1 0x4 DUP4 ADD MSTORE PUSH1 0x24 DUP3 ADD DUP4 SWAP1 MSTORE PUSH32 0x0 AND SWAP1 PUSH4 0xA9059CBB SWAP1 PUSH1 0x44 ADD PUSH1 0x20 PUSH1 0x40 MLOAD DUP1 DUP4 SUB DUP2 PUSH0 DUP8 GAS CALL ISZERO DUP1 ISZERO PUSH2 0x327 JUMPI RETURNDATASIZE PUSH0 DUP1 RETURNDATACOPY RETURNDATASIZE PUSH0 REVERT JUMPDEST POP POP POP POP PUSH1 0x40 MLOAD RETURNDATASIZE PUSH1 0x1F NOT PUSH1 0x1F DUP3 ADD AND DUP3 ADD DUP1 PUSH1 0x40 MSTORE POP DUP2 ADD SWAP1 PUSH2 0x34B SWAP2 SWAP1 PUSH2 0x430 JUMP JUMPDEST POP JUMPDEST PUSH1 0x40 DUP1 MLOAD DUP3 DUP2 MSTORE PUSH1 0x20 DUP2 ADD DUP5 SWAP1 MSTORE PUSH1 0x1 PUSH1 0x1 PUSH1 0xA0 SHL SUB PUSH32 0x0 AND SWAP2 PUSH32 0x5D95162205DC900555172B9649799B0334D5C456A8C9D875524229CD73416D4B SWAP2 ADD PUSH1 0x40 MLOAD DUP1 SWAP2 SUB SWAP1 LOG2 POP POP POP JUMP JUMPDEST PUSH0 PUSH1 0x20 DUP3 DUP5 SUB SLT ISZERO PUSH2 0x3C6 JUMPI PUSH0 DUP1 REVERT JUMPDEST POP MLOAD SWAP2 SWAP1 POP JUMP JUMPDEST PUSH4 0x4E487B71 PUSH1 0xE0 SHL PUSH0 MSTORE PUSH1 0x11 PUSH1 0x4 MSTORE PUSH1 0x24 PUSH0 REVERT JUMPDEST DUP1 DUP3 MUL DUP2 ISZERO DUP3 DUP3 DIV DUP5 EQ OR PUSH2 0x3F8 JUMPI PUSH2 0x3F8 PUSH2 0x3CD JUMP JUMPDEST SWAP3 SWAP2 POP POP JUMP JUMPDEST PUSH0 DUP3 PUSH2 0x418 JUMPI PUSH4 0x4E487B71 PUSH1 0xE0 SHL PUSH0 MSTORE PUSH1 0x12 PUSH1 0x4 MSTORE PUSH1 0x24 PUSH0 REVERT JUMPDEST POP DIV SWAP1 JUMP JUMPDEST DUP2 DUP2 SUB DUP2 DUP2 GT ISZERO PUSH2 0x3F8 JUMPI PUSH2 0x3F8 PUSH2 0x3CD JUMP JUMPDEST PUSH0 PUSH1 0x20 DUP3 DUP5 SUB SLT ISZERO PUSH2 0x440 JUMPI PUSH0 DUP1 REVERT JUMPDEST DUP2 MLOAD DUP1 ISZERO ISZERO DUP2 EQ PUSH2 0x44F JUMPI PUSH0 DUP1 REVERT JUMPDEST SWAP4 SWAP3 POP POP POP JUMP INVALID LOG2 PUSH5 0x6970667358 0x22 SLT KECCAK256 0xC PUSH23 0x984CDDA8CB3551B97A0C5FCEA4A846F4704CD70BCA022D 0x28 0xC2 0xA9 0xBA 0xE9 NOT 0xC2 PUSH5 0x736F6C6343 STOP ADDMOD XOR STOP CALLER "},"methodIdentifiers":{"BPS_DENOMINATOR()":"e1a45218","PLATFORM_BPS()":"ce91e164","platform()":"4bde38c8","publisher()":"8c72c54e","split()":"f7654176","usdc()":"3e413bee"}}}}}