{"project/contracts/SplitterFactory.sol":{"SplitterFactory":{"abi":[{"inputs":[{"internalType":"address","name":"_platform","type":"address"},{"internalType":"address","name":"_usdc","type":"address"}],"stateMutability":"nonpayable","type":"constructor"},{"inputs":[{"internalType":"address","name":"owner","type":"address"}],"name":"OwnableInvalidOwner","type":"error"},{"inputs":[{"internalType":"address","name":"account","type":"address"}],"name":"OwnableUnauthorizedAccount","type":"error"},{"anonymous":false,"inputs":[{"indexed":false,"internalType":"uint256","name":"minAmount","type":"uint256"},{"indexed":false,"internalType":"uint256","name":"flatFee","type":"uint256"},{"indexed":false,"internalType":"uint256","name":"threshold","type":"uint256"},{"indexed":false,"internalType":"uint256","name":"feeBps","type":"uint256"}],"name":"FeeParamsUpdated","type":"event"},{"anonymous":false,"inputs":[{"indexed":true,"internalType":"address","name":"previousOwner","type":"address"},{"indexed":true,"internalType":"address","name":"newOwner","type":"address"}],"name":"OwnershipTransferred","type":"event"},{"anonymous":false,"inputs":[{"indexed":true,"internalType":"address","name":"publisher","type":"address"},{"indexed":false,"internalType":"address","name":"splitter","type":"address"}],"name":"SplitterCreated","type":"event"},{"inputs":[],"name":"BPS","outputs":[{"internalType":"uint256","name":"","type":"uint256"}],"stateMutability":"view","type":"function"},{"inputs":[{"internalType":"uint256","name":"amount","type":"uint256"}],"name":"calculateFee","outputs":[{"internalType":"uint256","name":"","type":"uint256"}],"stateMutability":"view","type":"function"},{"inputs":[{"internalType":"address","name":"publisher","type":"address"}],"name":"deploy","outputs":[{"internalType":"address","name":"","type":"address"}],"stateMutability":"nonpayable","type":"function"},{"inputs":[],"name":"feeBps","outputs":[{"internalType":"uint256","name":"","type":"uint256"}],"stateMutability":"view","type":"function"},{"inputs":[],"name":"flatFee","outputs":[{"internalType":"uint256","name":"","type":"uint256"}],"stateMutability":"view","type":"function"},{"inputs":[],"name":"minAmount","outputs":[{"internalType":"uint256","name":"","type":"uint256"}],"stateMutability":"view","type":"function"},{"inputs":[],"name":"owner","outputs":[{"internalType":"address","name":"","type":"address"}],"stateMutability":"view","type":"function"},{"inputs":[],"name":"platform","outputs":[{"internalType":"address","name":"","type":"address"}],"stateMutability":"view","type":"function"},{"inputs":[],"name":"renounceOwnership","outputs":[],"stateMutability":"nonpayable","type":"function"},{"inputs":[{"internalType":"uint256","name":"_minAmount","type":"uint256"},{"internalType":"uint256","name":"_flatFee","type":"uint256"},{"internalType":"uint256","name":"_threshold","type":"uint256"},{"internalType":"uint256","name":"_feeBps","type":"uint256"}],"name":"setFeeParams","outputs":[],"stateMutability":"nonpayable","type":"function"},{"inputs":[{"internalType":"address[]","name":"splitterAddresses","type":"address[]"}],"name":"splitMany","outputs":[],"stateMutability":"nonpayable","type":"function"},{"inputs":[{"internalType":"address","name":"","type":"address"}],"name":"splitters","outputs":[{"internalType":"address","name":"","type":"address"}],"stateMutability":"view","type":"function"},{"inputs":[],"name":"threshold","outputs":[{"internalType":"uint256","name":"","type":"uint256"}],"stateMutability":"view","type":"function"},{"inputs":[{"internalType":"address","name":"newOwner","type":"address"}],"name":"transferOwnership","outputs":[],"stateMutability":"nonpayable","type":"function"},{"inputs":[],"name":"usdc","outputs":[{"internalType":"address","name":"","type":"address"}],"stateMutability":"view","type":"function"}],"evm":{"bytecode":{"linkReferences":{},"object":"60c0604052614e20600155612710600255620186a06003556103e8600455348015610028575f80fd5b50604051610edc380380610edc833981016040819052610047916100f7565b338061006c57604051631e4fbdf760e01b81525f600482015260240160405180910390fd5b6100758161008d565b506001600160a01b039182166080521660a052610128565b5f80546001600160a01b038381166001600160a01b0319831681178455604051919092169283917f8be0079c531659141344cd1fd0a4f28419497f9722a3daafe3b4186f6b6457e09190a35050565b80516001600160a01b03811681146100f2575f80fd5b919050565b5f8060408385031215610108575f80fd5b610111836100dc565b915061011f602084016100dc565b90509250929050565b60805160a051610d856101575f395f818161011e015261029f01525f8181610166015261027e0152610d855ff3fe608060405234801561000f575f80fd5b50600436106100f0575f3560e01c8063715018a611610093578063c41e1d1911610063578063c41e1d19146101e4578063d9eb5947146101f7578063e65cb24414610200578063f2fde38b14610228575f80fd5b8063715018a6146101b05780638da5cb5b146101b857806399a5d747146101c85780639b2cb5d8146101db575f80fd5b806342cde4e8116100ce57806342cde4e8146101585780634bde38c8146101615780634c96a389146101885780636d5fb64a1461019b575f80fd5b8063249d39e9146100f457806324a9d853146101105780633e413bee14610119575b5f80fd5b6100fd61271081565b6040519081526020015b60405180910390f35b6100fd60045481565b6101407f000000000000000000000000000000000000000000000000000000000000000081565b6040516001600160a01b039091168152602001610107565b6100fd60035481565b6101407f000000000000000000000000000000000000000000000000000000000000000081565b6101406101963660046105c9565b61023b565b6101ae6101a93660046105f6565b610377565b005b6101ae610425565b5f546001600160a01b0316610140565b6100fd6101d6366004610625565b610438565b6100fd60015481565b6101ae6101f236600461063c565b61047d565b6100fd60025481565b61014061020e3660046105c9565b60056020525f90815260409020546001600160a01b031681565b6101ae6102363660046105c9565b610504565b6001600160a01b038181165f908152600560205260408120549091161561027a57506001600160a01b039081165f908152600560205260409020541690565b5f827f00000000000000000000000000000000000000000000000000000000000000007f0000000000000000000000000000000000000000000000000000000000000000306040516102cb906105bc565b6001600160a01b039485168152928416602084015290831660408301529091166060820152608001604051809103905ff08015801561030c573d5f803e3d5ffd5b506001600160a01b038481165f8181526005602090815260409182902080546001600160a01b03191694861694851790559051928352929350917f22142b283581f0b2a487f7a23e0422d292eb5783629173717aa106744ad70d60910160405180910390a292915050565b61037f610541565b6127108111156103c35760405162461bcd60e51b815260206004820152600a602482015269666565203e203130302560b01b60448201526064015b60405180910390fd5b60018490556002839055600382905560048190556040805185815260208101859052908101839052606081018290527fbcc7b2dd84f54286b7f9e2368de1229ff1d53b35e2786e20d1b884e95feee4559060800160405180910390a150505050565b61042d610541565b6104365f61056d565b565b5f60015482101561044a57505f919050565b60035482101561045c57505060025490565b6127106004548361046d91906106ab565b61047791906106ce565b92915050565b5f5b818110156104ff57828282818110610499576104996106ed565b90506020020160208101906104ae91906105c9565b6001600160a01b031663f76541766040518163ffffffff1660e01b81526004015f604051808303815f87803b1580156104e5575f80fd5b505af19250505080156104f6575060015b5060010161047f565b505050565b61050c610541565b6001600160a01b03811661053557604051631e4fbdf760e01b81525f60048201526024016103ba565b61053e8161056d565b50565b5f546001600160a01b031633146104365760405163118cdaa760e01b81523360048201526024016103ba565b5f80546001600160a01b038381166001600160a01b0319831681178455604051919092169283917f8be0079c531659141344cd1fd0a4f28419497f9722a3daafe3b4186f6b6457e09190a35050565b61064e8061070283390190565b5f602082840312156105d9575f80fd5b81356001600160a01b03811681146105ef575f80fd5b9392505050565b5f805f8060808587031215610609575f80fd5b5050823594602084013594506040840135936060013592509050565b5f60208284031215610635575f80fd5b5035919050565b5f806020838503121561064d575f80fd5b823567ffffffffffffffff80821115610664575f80fd5b818501915085601f830112610677575f80fd5b813581811115610685575f80fd5b8660208260051b8501011115610699575f80fd5b60209290920196919550909350505050565b808202811582820484141761047757634e487b7160e01b5f52601160045260245ffd5b5f826106e857634e487b7160e01b5f52601260045260245ffd5b500490565b634e487b7160e01b5f52603260045260245ffdfe60e060405234801561000f575f80fd5b5060405161064e38038061064e83398101604081905261002e916100b6565b6001600160a01b03841661007c5760405162461bcd60e51b815260206004820152601160248201527034b73b30b634b210383ab13634b9b432b960791b604482015260640160405180910390fd5b6001600160a01b03938416608052831660a05290911660c05250610107565b80516001600160a01b03811681146100b1575f80fd5b919050565b5f805f80608085870312156100c9575f80fd5b6100d28561009b565b93506100e06020860161009b565b92506100ee6040860161009b565b91506100fc6060860161009b565b905092959194509250565b60805160a05160c0516104f66101585f395f8181605301528181610100015281816102a9015261036101525f818160bd015261018001525f818160960152818161033201526103e501526104f65ff3fe608060405234801561000f575f80fd5b506004361061004a575f3560e01c80633e413bee1461004e5780638c72c54e14610091578063c45a0155146100b8578063f7654176146100df575b5f80fd5b6100757f000000000000000000000000000000000000000000000000000000000000000081565b6040516001600160a01b03909116815260200160405180910390f35b6100757f000000000000000000000000000000000000000000000000000000000000000081565b6100757f000000000000000000000000000000000000000000000000000000000000000081565b6100e76100e9565b005b6040516370a0823160e01b81523060048201525f907f00000000000000000000000000000000000000000000000000000000000000006001600160a01b0316906370a0823190602401602060405180830381865afa15801561014d573d5f803e3d5ffd5b505050506040513d601f19601f820116820180604052508101906101719190610438565b9050805f0361017d5750565b5f7f000000000000000000000000000000000000000000000000000000000000000090505f816001600160a01b0316634bde38c86040518163ffffffff1660e01b8152600401602060405180830381865afa1580156101de573d5f803e3d5ffd5b505050506040513d601f19601f82011682018060405250810190610202919061044f565b6040516399a5d74760e01b8152600481018590529091505f906001600160a01b038416906399a5d74790602401602060405180830381865afa15801561024a573d5f803e3d5ffd5b505050506040513d601f19601f8201168201806040525081019061026e9190610438565b90505f61027b828661047c565b905081156103155760405163a9059cbb60e01b81526001600160a01b038481166004830152602482018490527f0000000000000000000000000000000000000000000000000000000000000000169063a9059cbb906044016020604051808303815f875af11580156102ef573d5f803e3d5ffd5b505050506040513d601f19601f8201168201806040525081019061031391906104a1565b505b80156103cd5760405163a9059cbb60e01b81526001600160a01b037f000000000000000000000000000000000000000000000000000000000000000081166004830152602482018390527f0000000000000000000000000000000000000000000000000000000000000000169063a9059cbb906044016020604051808303815f875af11580156103a7573d5f803e3d5ffd5b505050506040513d601f19601f820116820180604052508101906103cb91906104a1565b505b60408051828152602081018490526001600160a01b037f000000000000000000000000000000000000000000000000000000000000000016917f5d95162205dc900555172b9649799b0334d5c456a8c9d875524229cd73416d4b910160405180910390a25050505050565b5f60208284031215610448575f80fd5b5051919050565b5f6020828403121561045f575f80fd5b81516001600160a01b0381168114610475575f80fd5b9392505050565b8181038181111561049b57634e487b7160e01b5f52601160045260245ffd5b92915050565b5f602082840312156104b1575f80fd5b81518015158114610475575f80fdfea2646970667358221220d3c87a669f609b5c582fe16da0073098bb4ee70bf17437ed8e17d38866d88b0b64736f6c63430008180033a26469706673582212205ce976c2070a193cdc40bba5b8c1cf3cfc4922a1825a0264365ac0acde6a724a64736f6c63430008180033","opcodes":"PUSH1 0xC0 PUSH1 0x40 MSTORE PUSH2 0x4E20 PUSH1 0x1 SSTORE PUSH2 0x2710 PUSH1 0x2 SSTORE PUSH3 0x186A0 PUSH1 0x3 SSTORE PUSH2 0x3E8 PUSH1 0x4 SSTORE CALLVALUE DUP1 ISZERO PUSH2 0x28 JUMPI PUSH0 DUP1 REVERT JUMPDEST POP PUSH1 0x40 MLOAD PUSH2 0xEDC CODESIZE SUB DUP1 PUSH2 0xEDC DUP4 CODECOPY DUP2 ADD PUSH1 0x40 DUP2 SWAP1 MSTORE PUSH2 0x47 SWAP2 PUSH2 0xF7 JUMP JUMPDEST CALLER DUP1 PUSH2 0x6C JUMPI PUSH1 0x40 MLOAD PUSH4 0x1E4FBDF7 PUSH1 0xE0 SHL DUP2 MSTORE PUSH0 PUSH1 0x4 DUP3 ADD MSTORE PUSH1 0x24 ADD PUSH1 0x40 MLOAD DUP1 SWAP2 SUB SWAP1 REVERT JUMPDEST PUSH2 0x75 DUP2 PUSH2 0x8D JUMP JUMPDEST POP PUSH1 0x1 PUSH1 0x1 PUSH1 0xA0 SHL SUB SWAP2 DUP3 AND PUSH1 0x80 MSTORE AND PUSH1 0xA0 MSTORE PUSH2 0x128 JUMP JUMPDEST PUSH0 DUP1 SLOAD PUSH1 0x1 PUSH1 0x1 PUSH1 0xA0 SHL SUB DUP4 DUP2 AND PUSH1 0x1 PUSH1 0x1 PUSH1 0xA0 SHL SUB NOT DUP4 AND DUP2 OR DUP5 SSTORE PUSH1 0x40 MLOAD SWAP2 SWAP1 SWAP3 AND SWAP3 DUP4 SWAP2 PUSH32 0x8BE0079C531659141344CD1FD0A4F28419497F9722A3DAAFE3B4186F6B6457E0 SWAP2 SWAP1 LOG3 POP POP JUMP JUMPDEST DUP1 MLOAD PUSH1 0x1 PUSH1 0x1 PUSH1 0xA0 SHL SUB DUP2 AND DUP2 EQ PUSH2 0xF2 JUMPI PUSH0 DUP1 REVERT JUMPDEST SWAP2 SWAP1 POP JUMP JUMPDEST PUSH0 DUP1 PUSH1 0x40 DUP4 DUP6 SUB SLT ISZERO PUSH2 0x108 JUMPI PUSH0 DUP1 REVERT JUMPDEST PUSH2 0x111 DUP4 PUSH2 0xDC JUMP JUMPDEST SWAP2 POP PUSH2 0x11F PUSH1 0x20 DUP5 ADD PUSH2 0xDC JUMP JUMPDEST SWAP1 POP SWAP3 POP SWAP3 SWAP1 POP JUMP JUMPDEST PUSH1 0x80 MLOAD PUSH1 0xA0 MLOAD PUSH2 0xD85 PUSH2 0x157 PUSH0 CODECOPY PUSH0 DUP2 DUP2 PUSH2 0x11E ADD MSTORE PUSH2 0x29F ADD MSTORE PUSH0 DUP2 DUP2 PUSH2 0x166 ADD MSTORE PUSH2 0x27E ADD MSTORE PUSH2 0xD85 PUSH0 RETURN INVALID PUSH1 0x80 PUSH1 0x40 MSTORE CALLVALUE DUP1 ISZERO PUSH2 0xF JUMPI PUSH0 DUP1 REVERT JUMPDEST POP PUSH1 0x4 CALLDATASIZE LT PUSH2 0xF0 JUMPI PUSH0 CALLDATALOAD PUSH1 0xE0 SHR DUP1 PUSH4 0x715018A6 GT PUSH2 0x93 JUMPI DUP1 PUSH4 0xC41E1D19 GT PUSH2 0x63 JUMPI DUP1 PUSH4 0xC41E1D19 EQ PUSH2 0x1E4 JUMPI DUP1 PUSH4 0xD9EB5947 EQ PUSH2 0x1F7 JUMPI DUP1 PUSH4 0xE65CB244 EQ PUSH2 0x200 JUMPI DUP1 PUSH4 0xF2FDE38B EQ PUSH2 0x228 JUMPI PUSH0 DUP1 REVERT JUMPDEST DUP1 PUSH4 0x715018A6 EQ PUSH2 0x1B0 JUMPI DUP1 PUSH4 0x8DA5CB5B EQ PUSH2 0x1B8 JUMPI DUP1 PUSH4 0x99A5D747 EQ PUSH2 0x1C8 JUMPI DUP1 PUSH4 0x9B2CB5D8 EQ PUSH2 0x1DB JUMPI PUSH0 DUP1 REVERT JUMPDEST DUP1 PUSH4 0x42CDE4E8 GT PUSH2 0xCE JUMPI DUP1 PUSH4 0x42CDE4E8 EQ PUSH2 0x158 JUMPI DUP1 PUSH4 0x4BDE38C8 EQ PUSH2 0x161 JUMPI DUP1 PUSH4 0x4C96A389 EQ PUSH2 0x188 JUMPI DUP1 PUSH4 0x6D5FB64A EQ PUSH2 0x19B JUMPI PUSH0 DUP1 REVERT JUMPDEST DUP1 PUSH4 0x249D39E9 EQ PUSH2 0xF4 JUMPI DUP1 PUSH4 0x24A9D853 EQ PUSH2 0x110 JUMPI DUP1 PUSH4 0x3E413BEE EQ PUSH2 0x119 JUMPI JUMPDEST PUSH0 DUP1 REVERT JUMPDEST PUSH2 0xFD PUSH2 0x2710 DUP2 JUMP JUMPDEST PUSH1 0x40 MLOAD SWAP1 DUP2 MSTORE PUSH1 0x20 ADD JUMPDEST PUSH1 0x40 MLOAD DUP1 SWAP2 SUB SWAP1 RETURN JUMPDEST PUSH2 0xFD PUSH1 0x4 SLOAD DUP2 JUMP JUMPDEST PUSH2 0x140 PUSH32 0x0 DUP2 JUMP JUMPDEST PUSH1 0x40 MLOAD PUSH1 0x1 PUSH1 0x1 PUSH1 0xA0 SHL SUB SWAP1 SWAP2 AND DUP2 MSTORE PUSH1 0x20 ADD PUSH2 0x107 JUMP JUMPDEST PUSH2 0xFD PUSH1 0x3 SLOAD DUP2 JUMP JUMPDEST PUSH2 0x140 PUSH32 0x0 DUP2 JUMP JUMPDEST PUSH2 0x140 PUSH2 0x196 CALLDATASIZE PUSH1 0x4 PUSH2 0x5C9 JUMP JUMPDEST PUSH2 0x23B JUMP JUMPDEST PUSH2 0x1AE PUSH2 0x1A9 CALLDATASIZE PUSH1 0x4 PUSH2 0x5F6 JUMP JUMPDEST PUSH2 0x377 JUMP JUMPDEST STOP JUMPDEST PUSH2 0x1AE PUSH2 0x425 JUMP JUMPDEST PUSH0 SLOAD PUSH1 0x1 PUSH1 0x1 PUSH1 0xA0 SHL SUB AND PUSH2 0x140 JUMP JUMPDEST PUSH2 0xFD PUSH2 0x1D6 CALLDATASIZE PUSH1 0x4 PUSH2 0x625 JUMP JUMPDEST PUSH2 0x438 JUMP JUMPDEST PUSH2 0xFD PUSH1 0x1 SLOAD DUP2 JUMP JUMPDEST PUSH2 0x1AE PUSH2 0x1F2 CALLDATASIZE PUSH1 0x4 PUSH2 0x63C JUMP JUMPDEST PUSH2 0x47D JUMP JUMPDEST PUSH2 0xFD PUSH1 0x2 SLOAD DUP2 JUMP JUMPDEST PUSH2 0x140 PUSH2 0x20E CALLDATASIZE PUSH1 0x4 PUSH2 0x5C9 JUMP JUMPDEST PUSH1 0x5 PUSH1 0x20 MSTORE PUSH0 SWAP1 DUP2 MSTORE PUSH1 0x40 SWAP1 KECCAK256 SLOAD PUSH1 0x1 PUSH1 0x1 PUSH1 0xA0 SHL SUB AND DUP2 JUMP JUMPDEST PUSH2 0x1AE PUSH2 0x236 CALLDATASIZE PUSH1 0x4 PUSH2 0x5C9 JUMP JUMPDEST PUSH2 0x504 JUMP JUMPDEST PUSH1 0x1 PUSH1 0x1 PUSH1 0xA0 SHL SUB DUP2 DUP2 AND PUSH0 SWAP1 DUP2 MSTORE PUSH1 0x5 PUSH1 0x20 MSTORE PUSH1 0x40 DUP2 KECCAK256 SLOAD SWAP1 SWAP2 AND ISZERO PUSH2 0x27A JUMPI POP PUSH1 0x1 PUSH1 0x1 PUSH1 0xA0 SHL SUB SWAP1 DUP2 AND PUSH0 SWAP1 DUP2 MSTORE PUSH1 0x5 PUSH1 0x20 MSTORE PUSH1 0x40 SWAP1 KECCAK256 SLOAD AND SWAP1 JUMP JUMPDEST PUSH0 DUP3 PUSH32 0x0 PUSH32 0x0 ADDRESS PUSH1 0x40 MLOAD PUSH2 0x2CB SWAP1 PUSH2 0x5BC JUMP JUMPDEST PUSH1 0x1 PUSH1 0x1 PUSH1 0xA0 SHL SUB SWAP5 DUP6 AND DUP2 MSTORE SWAP3 DUP5 AND PUSH1 0x20 DUP5 ADD MSTORE SWAP1 DUP4 AND PUSH1 0x40 DUP4 ADD MSTORE SWAP1 SWAP2 AND PUSH1 0x60 DUP3 ADD MSTORE PUSH1 0x80 ADD PUSH1 0x40 MLOAD DUP1 SWAP2 SUB SWAP1 PUSH0 CREATE DUP1 ISZERO DUP1 ISZERO PUSH2 0x30C JUMPI RETURNDATASIZE PUSH0 DUP1 RETURNDATACOPY RETURNDATASIZE PUSH0 REVERT JUMPDEST POP PUSH1 0x1 PUSH1 0x1 PUSH1 0xA0 SHL SUB DUP5 DUP2 AND PUSH0 DUP2 DUP2 MSTORE PUSH1 0x5 PUSH1 0x20 SWAP1 DUP2 MSTORE PUSH1 0x40 SWAP2 DUP3 SWAP1 KECCAK256 DUP1 SLOAD PUSH1 0x1 PUSH1 0x1 PUSH1 0xA0 SHL SUB NOT AND SWAP5 DUP7 AND SWAP5 DUP6 OR SWAP1 SSTORE SWAP1 MLOAD SWAP3 DUP4 MSTORE SWAP3 SWAP4 POP SWAP2 PUSH32 0x22142B283581F0B2A487F7A23E0422D292EB5783629173717AA106744AD70D60 SWAP2 ADD PUSH1 0x40 MLOAD DUP1 SWAP2 SUB SWAP1 LOG2 SWAP3 SWAP2 POP POP JUMP JUMPDEST PUSH2 0x37F PUSH2 0x541 JUMP JUMPDEST PUSH2 0x2710 DUP2 GT ISZERO PUSH2 0x3C3 JUMPI PUSH1 0x40 MLOAD PUSH3 0x461BCD PUSH1 0xE5 SHL DUP2 MSTORE PUSH1 0x20 PUSH1 0x4 DUP3 ADD MSTORE PUSH1 0xA PUSH1 0x24 DUP3 ADD MSTORE PUSH10 0x666565203E2031303025 PUSH1 0xB0 SHL PUSH1 0x44 DUP3 ADD MSTORE PUSH1 0x64 ADD JUMPDEST PUSH1 0x40 MLOAD DUP1 SWAP2 SUB SWAP1 REVERT JUMPDEST PUSH1 0x1 DUP5 SWAP1 SSTORE PUSH1 0x2 DUP4 SWAP1 SSTORE PUSH1 0x3 DUP3 SWAP1 SSTORE PUSH1 0x4 DUP2 SWAP1 SSTORE PUSH1 0x40 DUP1 MLOAD DUP6 DUP2 MSTORE PUSH1 0x20 DUP2 ADD DUP6 SWAP1 MSTORE SWAP1 DUP2 ADD DUP4 SWAP1 MSTORE PUSH1 0x60 DUP2 ADD DUP3 SWAP1 MSTORE PUSH32 0xBCC7B2DD84F54286B7F9E2368DE1229FF1D53B35E2786E20D1B884E95FEEE455 SWAP1 PUSH1 0x80 ADD PUSH1 0x40 MLOAD DUP1 SWAP2 SUB SWAP1 LOG1 POP POP POP POP JUMP JUMPDEST PUSH2 0x42D PUSH2 0x541 JUMP JUMPDEST PUSH2 0x436 PUSH0 PUSH2 0x56D JUMP JUMPDEST JUMP JUMPDEST PUSH0 PUSH1 0x1 SLOAD DUP3 LT ISZERO PUSH2 0x44A JUMPI POP PUSH0 SWAP2 SWAP1 POP JUMP JUMPDEST PUSH1 0x3 SLOAD DUP3 LT ISZERO PUSH2 0x45C JUMPI POP POP PUSH1 0x2 SLOAD SWAP1 JUMP JUMPDEST PUSH2 0x2710 PUSH1 0x4 SLOAD DUP4 PUSH2 0x46D SWAP2 SWAP1 PUSH2 0x6AB JUMP JUMPDEST PUSH2 0x477 SWAP2 SWAP1 PUSH2 0x6CE JUMP JUMPDEST SWAP3 SWAP2 POP POP JUMP JUMPDEST PUSH0 JUMPDEST DUP2 DUP2 LT ISZERO PUSH2 0x4FF JUMPI DUP3 DUP3 DUP3 DUP2 DUP2 LT PUSH2 0x499 JUMPI PUSH2 0x499 PUSH2 0x6ED JUMP JUMPDEST SWAP1 POP PUSH1 0x20 MUL ADD PUSH1 0x20 DUP2 ADD SWAP1 PUSH2 0x4AE SWAP2 SWAP1 PUSH2 0x5C9 JUMP JUMPDEST PUSH1 0x1 PUSH1 0x1 PUSH1 0xA0 SHL SUB AND PUSH4 0xF7654176 PUSH1 0x40 MLOAD DUP2 PUSH4 0xFFFFFFFF AND PUSH1 0xE0 SHL DUP2 MSTORE PUSH1 0x4 ADD PUSH0 PUSH1 0x40 MLOAD DUP1 DUP4 SUB DUP2 PUSH0 DUP8 DUP1 EXTCODESIZE ISZERO DUP1 ISZERO PUSH2 0x4E5 JUMPI PUSH0 DUP1 REVERT JUMPDEST POP GAS CALL SWAP3 POP POP POP DUP1 ISZERO PUSH2 0x4F6 JUMPI POP PUSH1 0x1 JUMPDEST POP PUSH1 0x1 ADD PUSH2 0x47F JUMP JUMPDEST POP POP POP JUMP JUMPDEST PUSH2 0x50C PUSH2 0x541 JUMP JUMPDEST PUSH1 0x1 PUSH1 0x1 PUSH1 0xA0 SHL SUB DUP2 AND PUSH2 0x535 JUMPI PUSH1 0x40 MLOAD PUSH4 0x1E4FBDF7 PUSH1 0xE0 SHL DUP2 MSTORE PUSH0 PUSH1 0x4 DUP3 ADD MSTORE PUSH1 0x24 ADD PUSH2 0x3BA JUMP JUMPDEST PUSH2 0x53E DUP2 PUSH2 0x56D JUMP JUMPDEST POP JUMP JUMPDEST PUSH0 SLOAD PUSH1 0x1 PUSH1 0x1 PUSH1 0xA0 SHL SUB AND CALLER EQ PUSH2 0x436 JUMPI PUSH1 0x40 MLOAD PUSH4 0x118CDAA7 PUSH1 0xE0 SHL DUP2 MSTORE CALLER PUSH1 0x4 DUP3 ADD MSTORE PUSH1 0x24 ADD PUSH2 0x3BA JUMP JUMPDEST PUSH0 DUP1 SLOAD PUSH1 0x1 PUSH1 0x1 PUSH1 0xA0 SHL SUB DUP4 DUP2 AND PUSH1 0x1 PUSH1 0x1 PUSH1 0xA0 SHL SUB NOT DUP4 AND DUP2 OR DUP5 SSTORE PUSH1 0x40 MLOAD SWAP2 SWAP1 SWAP3 AND SWAP3 DUP4 SWAP2 PUSH32 0x8BE0079C531659141344CD1FD0A4F28419497F9722A3DAAFE3B4186F6B6457E0 SWAP2 SWAP1 LOG3 POP POP JUMP JUMPDEST PUSH2 0x64E DUP1 PUSH2 0x702 DUP4 CODECOPY ADD SWAP1 JUMP JUMPDEST PUSH0 PUSH1 0x20 DUP3 DUP5 SUB SLT ISZERO PUSH2 0x5D9 JUMPI PUSH0 DUP1 REVERT JUMPDEST DUP2 CALLDATALOAD PUSH1 0x1 PUSH1 0x1 PUSH1 0xA0 SHL SUB DUP2 AND DUP2 EQ PUSH2 0x5EF JUMPI PUSH0 DUP1 REVERT JUMPDEST SWAP4 SWAP3 POP POP POP JUMP JUMPDEST PUSH0 DUP1 PUSH0 DUP1 PUSH1 0x80 DUP6 DUP8 SUB SLT ISZERO PUSH2 0x609 JUMPI PUSH0 DUP1 REVERT JUMPDEST POP POP DUP3 CALLDATALOAD SWAP5 PUSH1 0x20 DUP5 ADD CALLDATALOAD SWAP5 POP PUSH1 0x40 DUP5 ADD CALLDATALOAD SWAP4 PUSH1 0x60 ADD CALLDATALOAD SWAP3 POP SWAP1 POP JUMP JUMPDEST PUSH0 PUSH1 0x20 DUP3 DUP5 SUB SLT ISZERO PUSH2 0x635 JUMPI PUSH0 DUP1 REVERT JUMPDEST POP CALLDATALOAD SWAP2 SWAP1 POP JUMP JUMPDEST PUSH0 DUP1 PUSH1 0x20 DUP4 DUP6 SUB SLT ISZERO PUSH2 0x64D JUMPI PUSH0 DUP1 REVERT JUMPDEST DUP3 CALLDATALOAD PUSH8 0xFFFFFFFFFFFFFFFF DUP1 DUP3 GT ISZERO PUSH2 0x664 JUMPI PUSH0 DUP1 REVERT JUMPDEST DUP2 DUP6 ADD SWAP2 POP DUP6 PUSH1 0x1F DUP4 ADD SLT PUSH2 0x677 JUMPI PUSH0 DUP1 REVERT JUMPDEST DUP2 CALLDATALOAD DUP2 DUP2 GT ISZERO PUSH2 0x685 JUMPI PUSH0 DUP1 REVERT JUMPDEST DUP7 PUSH1 0x20 DUP3 PUSH1 0x5 SHL DUP6 ADD ADD GT ISZERO PUSH2 0x699 JUMPI PUSH0 DUP1 REVERT JUMPDEST PUSH1 0x20 SWAP3 SWAP1 SWAP3 ADD SWAP7 SWAP2 SWAP6 POP SWAP1 SWAP4 POP POP POP POP JUMP JUMPDEST DUP1 DUP3 MUL DUP2 ISZERO DUP3 DUP3 DIV DUP5 EQ OR PUSH2 0x477 JUMPI PUSH4 0x4E487B71 PUSH1 0xE0 SHL PUSH0 MSTORE PUSH1 0x11 PUSH1 0x4 MSTORE PUSH1 0x24 PUSH0 REVERT JUMPDEST PUSH0 DUP3 PUSH2 0x6E8 JUMPI PUSH4 0x4E487B71 PUSH1 0xE0 SHL PUSH0 MSTORE PUSH1 0x12 PUSH1 0x4 MSTORE PUSH1 0x24 PUSH0 REVERT JUMPDEST POP DIV SWAP1 JUMP JUMPDEST PUSH4 0x4E487B71 PUSH1 0xE0 SHL PUSH0 MSTORE PUSH1 0x32 PUSH1 0x4 MSTORE PUSH1 0x24 PUSH0 REVERT INVALID PUSH1 0xE0 PUSH1 0x40 MSTORE CALLVALUE DUP1 ISZERO PUSH2 0xF JUMPI PUSH0 DUP1 REVERT JUMPDEST POP PUSH1 0x40 MLOAD PUSH2 0x64E CODESIZE SUB DUP1 PUSH2 0x64E DUP4 CODECOPY DUP2 ADD PUSH1 0x40 DUP2 SWAP1 MSTORE PUSH2 0x2E SWAP2 PUSH2 0xB6 JUMP JUMPDEST PUSH1 0x1 PUSH1 0x1 PUSH1 0xA0 SHL SUB DUP5 AND PUSH2 0x7C JUMPI PUSH1 0x40 MLOAD PUSH3 0x461BCD PUSH1 0xE5 SHL DUP2 MSTORE PUSH1 0x20 PUSH1 0x4 DUP3 ADD MSTORE PUSH1 0x11 PUSH1 0x24 DUP3 ADD MSTORE PUSH17 0x34B73B30B634B210383AB13634B9B432B9 PUSH1 0x79 SHL PUSH1 0x44 DUP3 ADD MSTORE PUSH1 0x64 ADD PUSH1 0x40 MLOAD DUP1 SWAP2 SUB SWAP1 REVERT JUMPDEST PUSH1 0x1 PUSH1 0x1 PUSH1 0xA0 SHL SUB SWAP4 DUP5 AND PUSH1 0x80 MSTORE DUP4 AND PUSH1 0xA0 MSTORE SWAP1 SWAP2 AND PUSH1 0xC0 MSTORE POP PUSH2 0x107 JUMP JUMPDEST DUP1 MLOAD PUSH1 0x1 PUSH1 0x1 PUSH1 0xA0 SHL SUB DUP2 AND DUP2 EQ PUSH2 0xB1 JUMPI PUSH0 DUP1 REVERT JUMPDEST SWAP2 SWAP1 POP JUMP JUMPDEST PUSH0 DUP1 PUSH0 DUP1 PUSH1 0x80 DUP6 DUP8 SUB SLT ISZERO PUSH2 0xC9 JUMPI PUSH0 DUP1 REVERT JUMPDEST PUSH2 0xD2 DUP6 PUSH2 0x9B JUMP JUMPDEST SWAP4 POP PUSH2 0xE0 PUSH1 0x20 DUP7 ADD PUSH2 0x9B JUMP JUMPDEST SWAP3 POP PUSH2 0xEE PUSH1 0x40 DUP7 ADD PUSH2 0x9B JUMP JUMPDEST SWAP2 POP PUSH2 0xFC PUSH1 0x60 DUP7 ADD PUSH2 0x9B JUMP JUMPDEST SWAP1 POP SWAP3 SWAP6 SWAP2 SWAP5 POP SWAP3 POP JUMP JUMPDEST PUSH1 0x80 MLOAD PUSH1 0xA0 MLOAD PUSH1 0xC0 MLOAD PUSH2 0x4F6 PUSH2 0x158 PUSH0 CODECOPY PUSH0 DUP2 DUP2 PUSH1 0x53 ADD MSTORE DUP2 DUP2 PUSH2 0x100 ADD MSTORE DUP2 DUP2 PUSH2 0x2A9 ADD MSTORE PUSH2 0x361 ADD MSTORE PUSH0 DUP2 DUP2 PUSH1 0xBD ADD MSTORE PUSH2 0x180 ADD MSTORE PUSH0 DUP2 DUP2 PUSH1 0x96 ADD MSTORE DUP2 DUP2 PUSH2 0x332 ADD MSTORE PUSH2 0x3E5 ADD MSTORE PUSH2 0x4F6 PUSH0 RETURN INVALID PUSH1 0x80 PUSH1 0x40 MSTORE CALLVALUE DUP1 ISZERO PUSH2 0xF JUMPI PUSH0 DUP1 REVERT JUMPDEST POP PUSH1 0x4 CALLDATASIZE LT PUSH2 0x4A JUMPI PUSH0 CALLDATALOAD PUSH1 0xE0 SHR DUP1 PUSH4 0x3E413BEE EQ PUSH2 0x4E JUMPI DUP1 PUSH4 0x8C72C54E EQ PUSH2 0x91 JUMPI DUP1 PUSH4 0xC45A0155 EQ PUSH2 0xB8 JUMPI DUP1 PUSH4 0xF7654176 EQ PUSH2 0xDF JUMPI JUMPDEST PUSH0 DUP1 REVERT JUMPDEST PUSH2 0x75 PUSH32 0x0 DUP2 JUMP JUMPDEST PUSH1 0x40 MLOAD PUSH1 0x1 PUSH1 0x1 PUSH1 0xA0 SHL SUB SWAP1 SWAP2 AND DUP2 MSTORE PUSH1 0x20 ADD PUSH1 0x40 MLOAD DUP1 SWAP2 SUB SWAP1 RETURN JUMPDEST PUSH2 0x75 PUSH32 0x0 DUP2 JUMP JUMPDEST PUSH2 0x75 PUSH32 0x0 DUP2 JUMP JUMPDEST PUSH2 0xE7 PUSH2 0xE9 JUMP JUMPDEST STOP JUMPDEST PUSH1 0x40 MLOAD PUSH4 0x70A08231 PUSH1 0xE0 SHL DUP2 MSTORE ADDRESS PUSH1 0x4 DUP3 ADD MSTORE PUSH0 SWAP1 PUSH32 0x0 PUSH1 0x1 PUSH1 0x1 PUSH1 0xA0 SHL SUB AND SWAP1 PUSH4 0x70A08231 SWAP1 PUSH1 0x24 ADD PUSH1 0x20 PUSH1 0x40 MLOAD DUP1 DUP4 SUB DUP2 DUP7 GAS STATICCALL ISZERO DUP1 ISZERO PUSH2 0x14D JUMPI RETURNDATASIZE PUSH0 DUP1 RETURNDATACOPY RETURNDATASIZE PUSH0 REVERT JUMPDEST POP POP POP POP PUSH1 0x40 MLOAD RETURNDATASIZE PUSH1 0x1F NOT PUSH1 0x1F DUP3 ADD AND DUP3 ADD DUP1 PUSH1 0x40 MSTORE POP DUP2 ADD SWAP1 PUSH2 0x171 SWAP2 SWAP1 PUSH2 0x438 JUMP JUMPDEST SWAP1 POP DUP1 PUSH0 SUB PUSH2 0x17D JUMPI POP JUMP JUMPDEST PUSH0 PUSH32 0x0 SWAP1 POP PUSH0 DUP2 PUSH1 0x1 PUSH1 0x1 PUSH1 0xA0 SHL SUB AND PUSH4 0x4BDE38C8 PUSH1 0x40 MLOAD DUP2 PUSH4 0xFFFFFFFF AND PUSH1 0xE0 SHL DUP2 MSTORE PUSH1 0x4 ADD PUSH1 0x20 PUSH1 0x40 MLOAD DUP1 DUP4 SUB DUP2 DUP7 GAS STATICCALL ISZERO DUP1 ISZERO PUSH2 0x1DE JUMPI RETURNDATASIZE PUSH0 DUP1 RETURNDATACOPY RETURNDATASIZE PUSH0 REVERT JUMPDEST POP POP POP POP PUSH1 0x40 MLOAD RETURNDATASIZE PUSH1 0x1F NOT PUSH1 0x1F DUP3 ADD AND DUP3 ADD DUP1 PUSH1 0x40 MSTORE POP DUP2 ADD SWAP1 PUSH2 0x202 SWAP2 SWAP1 PUSH2 0x44F JUMP JUMPDEST PUSH1 0x40 MLOAD PUSH4 0x99A5D747 PUSH1 0xE0 SHL DUP2 MSTORE PUSH1 0x4 DUP2 ADD DUP6 SWAP1 MSTORE SWAP1 SWAP2 POP PUSH0 SWAP1 PUSH1 0x1 PUSH1 0x1 PUSH1 0xA0 SHL SUB DUP5 AND SWAP1 PUSH4 0x99A5D747 SWAP1 PUSH1 0x24 ADD PUSH1 0x20 PUSH1 0x40 MLOAD DUP1 DUP4 SUB DUP2 DUP7 GAS STATICCALL ISZERO DUP1 ISZERO PUSH2 0x24A JUMPI RETURNDATASIZE PUSH0 DUP1 RETURNDATACOPY RETURNDATASIZE PUSH0 REVERT JUMPDEST POP POP POP POP PUSH1 0x40 MLOAD RETURNDATASIZE PUSH1 0x1F NOT PUSH1 0x1F DUP3 ADD AND DUP3 ADD DUP1 PUSH1 0x40 MSTORE POP DUP2 ADD SWAP1 PUSH2 0x26E SWAP2 SWAP1 PUSH2 0x438 JUMP JUMPDEST SWAP1 POP PUSH0 PUSH2 0x27B DUP3 DUP7 PUSH2 0x47C JUMP JUMPDEST SWAP1 POP DUP2 ISZERO PUSH2 0x315 JUMPI PUSH1 0x40 MLOAD PUSH4 0xA9059CBB PUSH1 0xE0 SHL DUP2 MSTORE PUSH1 0x1 PUSH1 0x1 PUSH1 0xA0 SHL SUB DUP5 DUP2 AND PUSH1 0x4 DUP4 ADD MSTORE PUSH1 0x24 DUP3 ADD DUP5 SWAP1 MSTORE PUSH32 0x0 AND SWAP1 PUSH4 0xA9059CBB SWAP1 PUSH1 0x44 ADD PUSH1 0x20 PUSH1 0x40 MLOAD DUP1 DUP4 SUB DUP2 PUSH0 DUP8 GAS CALL ISZERO DUP1 ISZERO PUSH2 0x2EF JUMPI RETURNDATASIZE PUSH0 DUP1 RETURNDATACOPY RETURNDATASIZE PUSH0 REVERT JUMPDEST POP POP POP POP PUSH1 0x40 MLOAD RETURNDATASIZE PUSH1 0x1F NOT PUSH1 0x1F DUP3 ADD AND DUP3 ADD DUP1 PUSH1 0x40 MSTORE POP DUP2 ADD SWAP1 PUSH2 0x313 SWAP2 SWAP1 PUSH2 0x4A1 JUMP JUMPDEST POP JUMPDEST DUP1 ISZERO PUSH2 0x3CD JUMPI PUSH1 0x40 MLOAD PUSH4 0xA9059CBB PUSH1 0xE0 SHL DUP2 MSTORE PUSH1 0x1 PUSH1 0x1 PUSH1 0xA0 SHL SUB PUSH32 0x0 DUP2 AND PUSH1 0x4 DUP4 ADD MSTORE PUSH1 0x24 DUP3 ADD DUP4 SWAP1 MSTORE PUSH32 0x0 AND SWAP1 PUSH4 0xA9059CBB SWAP1 PUSH1 0x44 ADD PUSH1 0x20 PUSH1 0x40 MLOAD DUP1 DUP4 SUB DUP2 PUSH0 DUP8 GAS CALL ISZERO DUP1 ISZERO PUSH2 0x3A7 JUMPI RETURNDATASIZE PUSH0 DUP1 RETURNDATACOPY RETURNDATASIZE PUSH0 REVERT JUMPDEST POP POP POP POP PUSH1 0x40 MLOAD RETURNDATASIZE PUSH1 0x1F NOT PUSH1 0x1F DUP3 ADD AND DUP3 ADD DUP1 PUSH1 0x40 MSTORE POP DUP2 ADD SWAP1 PUSH2 0x3CB SWAP2 SWAP1 PUSH2 0x4A1 JUMP JUMPDEST POP JUMPDEST PUSH1 0x40 DUP1 MLOAD DUP3 DUP2 MSTORE PUSH1 0x20 DUP2 ADD DUP5 SWAP1 MSTORE PUSH1 0x1 PUSH1 0x1 PUSH1 0xA0 SHL SUB PUSH32 0x0 AND SWAP2 PUSH32 0x5D95162205DC900555172B9649799B0334D5C456A8C9D875524229CD73416D4B SWAP2 ADD PUSH1 0x40 MLOAD DUP1 SWAP2 SUB SWAP1 LOG2 POP POP POP POP POP JUMP JUMPDEST PUSH0 PUSH1 0x20 DUP3 DUP5 SUB SLT ISZERO PUSH2 0x448 JUMPI PUSH0 DUP1 REVERT JUMPDEST POP MLOAD SWAP2 SWAP1 POP JUMP JUMPDEST PUSH0 PUSH1 0x20 DUP3 DUP5 SUB SLT ISZERO PUSH2 0x45F JUMPI PUSH0 DUP1 REVERT JUMPDEST DUP2 MLOAD PUSH1 0x1 PUSH1 0x1 PUSH1 0xA0 SHL SUB DUP2 AND DUP2 EQ PUSH2 0x475 JUMPI PUSH0 DUP1 REVERT JUMPDEST SWAP4 SWAP3 POP POP POP JUMP JUMPDEST DUP2 DUP2 SUB DUP2 DUP2 GT ISZERO PUSH2 0x49B JUMPI PUSH4 0x4E487B71 PUSH1 0xE0 SHL PUSH0 MSTORE PUSH1 0x11 PUSH1 0x4 MSTORE PUSH1 0x24 PUSH0 REVERT JUMPDEST SWAP3 SWAP2 POP POP JUMP JUMPDEST PUSH0 PUSH1 0x20 DUP3 DUP5 SUB SLT ISZERO PUSH2 0x4B1 JUMPI PUSH0 DUP1 REVERT JUMPDEST DUP2 MLOAD DUP1 ISZERO ISZERO DUP2 EQ PUSH2 0x475 JUMPI PUSH0 DUP1 REVERT INVALID LOG2 PUSH5 0x6970667358 0x22 SLT KECCAK256 0xD3 0xC8 PUSH27 0x669F609B5C582FE16DA0073098BB4EE70BF17437ED8E17D38866D8 DUP12 SIGNEXTEND PUSH5 0x736F6C6343 STOP ADDMOD XOR STOP CALLER LOG2 PUSH5 0x6970667358 0x22 SLT KECCAK256 TLOAD 0xE9 PUSH23 0xC2070A193CDC40BBA5B8C1CF3CFC4922A1825A0264365A 0xC0 0xAC 0xDE PUSH11 0x724A64736F6C6343000818 STOP CALLER "},"methodIdentifiers":{"BPS()":"249d39e9","calculateFee(uint256)":"99a5d747","deploy(address)":"4c96a389","feeBps()":"24a9d853","flatFee()":"d9eb5947","minAmount()":"9b2cb5d8","owner()":"8da5cb5b","platform()":"4bde38c8","renounceOwnership()":"715018a6","setFeeParams(uint256,uint256,uint256,uint256)":"6d5fb64a","splitMany(address[])":"c41e1d19","splitters(address)":"e65cb244","threshold()":"42cde4e8","transferOwnership(address)":"f2fde38b","usdc()":"3e413bee"}}}}}